{
  "_format": "hh-sol-artifact-1",
  "contractName": "CryptoDevDAO",
  "sourceName": "contracts/CryptoDevDAO.sol",
  "abi": [
    {
      "inputs": [
        {
          "internalType": "address",
          "name": "_nftMarketplace",
          "type": "address"
        },
        {
          "internalType": "address",
          "name": "_cryptoDevsNFT",
          "type": "address"
        }
      ],
      "stateMutability": "payable",
      "type": "constructor"
    },
    {
      "anonymous": false,
      "inputs": [
        {
          "indexed": true,
          "internalType": "address",
          "name": "previousOwner",
          "type": "address"
        },
        {
          "indexed": true,
          "internalType": "address",
          "name": "newOwner",
          "type": "address"
        }
      ],
      "name": "OwnershipTransferred",
      "type": "event"
    },
    {
      "stateMutability": "payable",
      "type": "fallback"
    },
    {
      "inputs": [
        {
          "internalType": "uint256",
          "name": "_nftTokenId",
          "type": "uint256"
        }
      ],
      "name": "createProposal",
      "outputs": [
        {
          "internalType": "uint256",
          "name": "",
          "type": "uint256"
        }
      ],
      "stateMutability": "nonpayable",
      "type": "function"
    },
    {
      "inputs": [
        {
          "internalType": "uint256",
          "name": "proposalIndex",
          "type": "uint256"
        }
      ],
      "name": "executeProposal",
      "outputs": [],
      "stateMutability": "nonpayable",
      "type": "function"
    },
    {
      "inputs": [],
      "name": "numProposals",
      "outputs": [
        {
          "internalType": "uint256",
          "name": "",
          "type": "uint256"
        }
      ],
      "stateMutability": "view",
      "type": "function"
    },
    {
      "inputs": [],
      "name": "owner",
      "outputs": [
        {
          "internalType": "address",
          "name": "",
          "type": "address"
        }
      ],
      "stateMutability": "view",
      "type": "function"
    },
    {
      "inputs": [
        {
          "internalType": "uint256",
          "name": "",
          "type": "uint256"
        }
      ],
      "name": "proposals",
      "outputs": [
        {
          "internalType": "uint256",
          "name": "nftTokenId",
          "type": "uint256"
        },
        {
          "internalType": "uint256",
          "name": "deadline",
          "type": "uint256"
        },
        {
          "internalType": "uint256",
          "name": "yayVotes",
          "type": "uint256"
        },
        {
          "internalType": "uint256",
          "name": "nayVotes",
          "type": "uint256"
        },
        {
          "internalType": "bool",
          "name": "executed",
          "type": "bool"
        }
      ],
      "stateMutability": "view",
      "type": "function"
    },
    {
      "inputs": [],
      "name": "renounceOwnership",
      "outputs": [],
      "stateMutability": "nonpayable",
      "type": "function"
    },
    {
      "inputs": [
        {
          "internalType": "address",
          "name": "newOwner",
          "type": "address"
        }
      ],
      "name": "transferOwnership",
      "outputs": [],
      "stateMutability": "nonpayable",
      "type": "function"
    },
    {
      "inputs": [
        {
          "internalType": "uint256",
          "name": "proposalIndex",
          "type": "uint256"
        },
        {
          "internalType": "enum CryptoDevDAO.Vote",
          "name": "vote",
          "type": "uint8"
        }
      ],
      "name": "voteOnProposal",
      "outputs": [],
      "stateMutability": "nonpayable",
      "type": "function"
    },
    {
      "inputs": [],
      "name": "withdrawEther",
      "outputs": [],
      "stateMutability": "payable",
      "type": "function"
    },
    {
      "stateMutability": "payable",
      "type": "receive"
    }
  ],
  "bytecode": "0x6080604052604051620018ec380380620018ec833981810160405281019062000029919062000209565b620000496200003d620000d360201b60201c565b620000db60201b60201c565b81600260006101000a81548173ffffffffffffffffffffffffffffffffffffffff021916908373ffffffffffffffffffffffffffffffffffffffff16021790555080600360006101000a81548173ffffffffffffffffffffffffffffffffffffffff021916908373ffffffffffffffffffffffffffffffffffffffff160217905550505062000250565b600033905090565b60008060009054906101000a900473ffffffffffffffffffffffffffffffffffffffff169050816000806101000a81548173ffffffffffffffffffffffffffffffffffffffff021916908373ffffffffffffffffffffffffffffffffffffffff1602179055508173ffffffffffffffffffffffffffffffffffffffff168173ffffffffffffffffffffffffffffffffffffffff167f8be0079c531659141344cd1fd0a4f28419497f9722a3daafe3b4186f6b6457e060405160405180910390a35050565b600080fd5b600073ffffffffffffffffffffffffffffffffffffffff82169050919050565b6000620001d182620001a4565b9050919050565b620001e381620001c4565b8114620001ef57600080fd5b50565b6000815190506200020381620001d8565b92915050565b600080604083850312156200022357620002226200019f565b5b60006200023385828601620001f2565b92505060206200024685828601620001f2565b9150509250929050565b61168c80620002606000396000f3fe60806040526004361061008a5760003560e01c8063715018a611610059578063715018a6146101655780637362377b1461017c5780638da5cb5b14610186578063efafb22e146101b1578063f2fde38b146101da57610091565b8063013cf08b146100935780630d61b519146100d4578063400e3949146100fd5780635a43dc001461012857610091565b3661009157005b005b34801561009f57600080fd5b506100ba60048036038101906100b59190610e7f565b610203565b6040516100cb959493929190610ed6565b60405180910390f35b3480156100e057600080fd5b506100fb60048036038101906100f69190610e7f565b610246565b005b34801561010957600080fd5b5061011261059e565b60405161011f9190610f29565b60405180910390f35b34801561013457600080fd5b5061014f600480360381019061014a9190610e7f565b6105a4565b60405161015c9190610f29565b60405180910390f35b34801561017157600080fd5b5061017a6107e3565b005b6101846107f7565b005b34801561019257600080fd5b5061019b61084f565b6040516101a89190610f85565b60405180910390f35b3480156101bd57600080fd5b506101d860048036038101906101d39190610fc5565b610878565b005b3480156101e657600080fd5b5061020160048036038101906101fc9190611031565b610c76565b005b60016020528060005260406000206000915090508060000154908060010154908060020154908060030154908060040160009054906101000a900460ff16905085565b6000600360009054906101000a900473ffffffffffffffffffffffffffffffffffffffff1673ffffffffffffffffffffffffffffffffffffffff166370a08231336040518263ffffffff1660e01b81526004016102a39190610f85565b60206040518083038186803b1580156102bb57600080fd5b505afa1580156102cf573d6000803e3d6000fd5b505050506040513d601f19601f820116820180604052508101906102f39190611073565b11610333576040517f08c379a000000000000000000000000000000000000000000000000000000000815260040161032a906110fd565b60405180910390fd5b80426001600083815260200190815260200160002060010154111561038d576040517f08c379a000000000000000000000000000000000000000000000000000000000815260040161038490611169565b60405180910390fd5b600015156001600083815260200190815260200160002060040160009054906101000a900460ff161515146103f7576040517f08c379a00000000000000000000000000000000000000000000000000000000081526004016103ee906111d5565b60405180910390fd5b6000600160008481526020019081526020016000209050806003015481600201541115610599576000600260009054906101000a900473ffffffffffffffffffffffffffffffffffffffff1673ffffffffffffffffffffffffffffffffffffffff166398d5fdca6040518163ffffffff1660e01b815260040160206040518083038186803b15801561048857600080fd5b505afa15801561049c573d6000803e3d6000fd5b505050506040513d601f19601f820116820180604052508101906104c09190611073565b905080471015610505576040517f08c379a00000000000000000000000000000000000000000000000000000000081526004016104fc90611241565b60405180910390fd5b600260009054906101000a900473ffffffffffffffffffffffffffffffffffffffff1673ffffffffffffffffffffffffffffffffffffffff1663efef39a18284600001546040518363ffffffff1660e01b81526004016105659190610f29565b6000604051808303818588803b15801561057e57600080fd5b505af1158015610592573d6000803e3d6000fd5b5050505050505b505050565b60045481565b600080600360009054906101000a900473ffffffffffffffffffffffffffffffffffffffff1673ffffffffffffffffffffffffffffffffffffffff166370a08231336040518263ffffffff1660e01b81526004016106029190610f85565b60206040518083038186803b15801561061a57600080fd5b505afa15801561062e573d6000803e3d6000fd5b505050506040513d601f19601f820116820180604052508101906106529190611073565b11610692576040517f08c379a0000000000000000000000000000000000000000000000000000000008152600401610689906110fd565b60405180910390fd5b600260009054906101000a900473ffffffffffffffffffffffffffffffffffffffff1673ffffffffffffffffffffffffffffffffffffffff166396e494e8836040518263ffffffff1660e01b81526004016106ed9190610f29565b60206040518083038186803b15801561070557600080fd5b505afa158015610719573d6000803e3d6000fd5b505050506040513d601f19601f8201168201806040525081019061073d919061128d565b61077c576040517f08c379a000000000000000000000000000000000000000000000000000000000815260040161077390611306565b60405180910390fd5b6000600160006004548152602001908152602001600020905082816000018190555061012c426107ac9190611355565b8160010181905550600460008154809291906107c7906113ab565b919050555060016004546107db91906113f4565b915050919050565b6107eb610cfa565b6107f56000610d78565b565b6107ff610cfa565b61080761084f565b73ffffffffffffffffffffffffffffffffffffffff166108fc479081150290604051600060405180830381858888f1935050505015801561084c573d6000803e3d6000fd5b50565b60008060009054906101000a900473ffffffffffffffffffffffffffffffffffffffff16905090565b6000600360009054906101000a900473ffffffffffffffffffffffffffffffffffffffff1673ffffffffffffffffffffffffffffffffffffffff166370a08231336040518263ffffffff1660e01b81526004016108d59190610f85565b60206040518083038186803b1580156108ed57600080fd5b505afa158015610901573d6000803e3d6000fd5b505050506040513d601f19601f820116820180604052508101906109259190611073565b11610965576040517f08c379a000000000000000000000000000000000000000000000000000000000815260040161095c906110fd565b60405180910390fd5b81426001600083815260200190815260200160002060010154116109be576040517f08c379a00000000000000000000000000000000000000000000000000000000081526004016109b590611474565b60405180910390fd5b60006001600085815260200190815260200160002090506000600360009054906101000a900473ffffffffffffffffffffffffffffffffffffffff1673ffffffffffffffffffffffffffffffffffffffff166370a08231336040518263ffffffff1660e01b8152600401610a329190610f85565b60206040518083038186803b158015610a4a57600080fd5b505afa158015610a5e573d6000803e3d6000fd5b505050506040513d601f19601f82011682018060405250810190610a829190611073565b90506000805b82811015610bc1576000600360009054906101000a900473ffffffffffffffffffffffffffffffffffffffff1673ffffffffffffffffffffffffffffffffffffffff16632f745c5933846040518363ffffffff1660e01b8152600401610aef929190611494565b60206040518083038186803b158015610b0757600080fd5b505afa158015610b1b573d6000803e3d6000fd5b505050506040513d601f19601f82011682018060405250810190610b3f9190611073565b90506000151585600501600083815260200190815260200160002060009054906101000a900460ff1615151415610bad578280610b7b906113ab565b935050600185600501600083815260200190815260200160002060006101000a81548160ff0219169083151502179055505b508080610bb9906113ab565b915050610a88565b5060008111610c05576040517f08c379a0000000000000000000000000000000000000000000000000000000008152600401610bfc90611509565b60405180910390fd5b60006001811115610c1957610c18611529565b5b856001811115610c2c57610c2b611529565b5b1415610c525780836002016000828254610c469190611355565b92505081905550610c6e565b80836003016000828254610c669190611355565b925050819055505b505050505050565b610c7e610cfa565b600073ffffffffffffffffffffffffffffffffffffffff168173ffffffffffffffffffffffffffffffffffffffff161415610cee576040517f08c379a0000000000000000000000000000000000000000000000000000000008152600401610ce5906115ca565b60405180910390fd5b610cf781610d78565b50565b610d02610e3c565b73ffffffffffffffffffffffffffffffffffffffff16610d2061084f565b73ffffffffffffffffffffffffffffffffffffffff1614610d76576040517f08c379a0000000000000000000000000000000000000000000000000000000008152600401610d6d90611636565b60405180910390fd5b565b60008060009054906101000a900473ffffffffffffffffffffffffffffffffffffffff169050816000806101000a81548173ffffffffffffffffffffffffffffffffffffffff021916908373ffffffffffffffffffffffffffffffffffffffff1602179055508173ffffffffffffffffffffffffffffffffffffffff168173ffffffffffffffffffffffffffffffffffffffff167f8be0079c531659141344cd1fd0a4f28419497f9722a3daafe3b4186f6b6457e060405160405180910390a35050565b600033905090565b600080fd5b6000819050919050565b610e5c81610e49565b8114610e6757600080fd5b50565b600081359050610e7981610e53565b92915050565b600060208284031215610e9557610e94610e44565b5b6000610ea384828501610e6a565b91505092915050565b610eb581610e49565b82525050565b60008115159050919050565b610ed081610ebb565b82525050565b600060a082019050610eeb6000830188610eac565b610ef86020830187610eac565b610f056040830186610eac565b610f126060830185610eac565b610f1f6080830184610ec7565b9695505050505050565b6000602082019050610f3e6000830184610eac565b92915050565b600073ffffffffffffffffffffffffffffffffffffffff82169050919050565b6000610f6f82610f44565b9050919050565b610f7f81610f64565b82525050565b6000602082019050610f9a6000830184610f76565b92915050565b60028110610fad57600080fd5b50565b600081359050610fbf81610fa0565b92915050565b60008060408385031215610fdc57610fdb610e44565b5b6000610fea85828601610e6a565b9250506020610ffb85828601610fb0565b9150509250929050565b61100e81610f64565b811461101957600080fd5b50565b60008135905061102b81611005565b92915050565b60006020828403121561104757611046610e44565b5b60006110558482850161101c565b91505092915050565b60008151905061106d81610e53565b92915050565b60006020828403121561108957611088610e44565b5b60006110978482850161105e565b91505092915050565b600082825260208201905092915050565b7f4e6f7420612044414f206d656d62657200000000000000000000000000000000600082015250565b60006110e76010836110a0565b91506110f2826110b1565b602082019050919050565b60006020820190508181036000830152611116816110da565b9050919050565b7f444541444c494e455f4e4f545f45584345454445440000000000000000000000600082015250565b60006111536015836110a0565b915061115e8261111d565b602082019050919050565b6000602082019050818103600083015261118281611146565b9050919050565b7f50524f504f53414c5f414c52454144595f455845435554454400000000000000600082015250565b60006111bf6019836110a0565b91506111ca82611189565b602082019050919050565b600060208201905081810360008301526111ee816111b2565b9050919050565b7f4e6f7420656e6f7567682066756e647300000000000000000000000000000000600082015250565b600061122b6010836110a0565b9150611236826111f5565b602082019050919050565b6000602082019050818103600083015261125a8161121e565b9050919050565b61126a81610ebb565b811461127557600080fd5b50565b60008151905061128781611261565b92915050565b6000602082840312156112a3576112a2610e44565b5b60006112b184828501611278565b91505092915050565b7f4e4654204e4f5420464f554e442f20416c726561647920707572636861736564600082015250565b60006112f06020836110a0565b91506112fb826112ba565b602082019050919050565b6000602082019050818103600083015261131f816112e3565b9050919050565b7f4e487b7100000000000000000000000000000000000000000000000000000000600052601160045260246000fd5b600061136082610e49565b915061136b83610e49565b9250827fffffffffffffffffffffffffffffffffffffffffffffffffffffffffffffffff038211156113a05761139f611326565b5b828201905092915050565b60006113b682610e49565b91507fffffffffffffffffffffffffffffffffffffffffffffffffffffffffffffffff8214156113e9576113e8611326565b5b600182019050919050565b60006113ff82610e49565b915061140a83610e49565b92508282101561141d5761141c611326565b5b828203905092915050565b7f444541444c494e45204558434545444544000000000000000000000000000000600082015250565b600061145e6011836110a0565b915061146982611428565b602082019050919050565b6000602082019050818103600083015261148d81611451565b9050919050565b60006040820190506114a96000830185610f76565b6114b66020830184610eac565b9392505050565b7f414c52454144595f564f54454400000000000000000000000000000000000000600082015250565b60006114f3600d836110a0565b91506114fe826114bd565b602082019050919050565b60006020820190508181036000830152611522816114e6565b9050919050565b7f4e487b7100000000000000000000000000000000000000000000000000000000600052602160045260246000fd5b7f4f776e61626c653a206e6577206f776e657220697320746865207a65726f206160008201527f6464726573730000000000000000000000000000000000000000000000000000602082015250565b60006115b46026836110a0565b91506115bf82611558565b604082019050919050565b600060208201905081810360008301526115e3816115a7565b9050919050565b7f4f776e61626c653a2063616c6c6572206973206e6f7420746865206f776e6572600082015250565b60006116206020836110a0565b915061162b826115ea565b602082019050919050565b6000602082019050818103600083015261164f81611613565b905091905056fea26469706673582212205ad949ad1498267feb4d526ad1841f3e37b3559c2bd865d5430c7ae119245db264736f6c63430008090033",
  "linkReferences": {},
  "deployedLinkReferences": {}
}